:100000000C9452000C94F7000C94D0000C946F00E8
:100010000C946F000C946F000C946F000C946F00A4
:100020000C946F000C946F000C946F000C946F0094
:100030000C946F000C946F000C946F000C946F0084
:100040000C9486000C946F000C946F000C946F005D
:100050000C946F000C946F000C946F000C946F0064
:100060000C946F000C946F00000000002500280025
:100070002B0000000000240027002A0004040404D0
:100080000404040402020202020203030303030342
:10009000010204081020408001020408102001021F
:1000A0000408102011241FBECFEFD8E0DEBFCDBF63
:1000B00011E0A0E0B1E0ECE2F3E002C005900D92A7
:1000C000A430B107D9F721E0A4E0B1E001C01D924E
:1000D000AF30B207E1F70E941E010C9494010C941A
:1000E00000008091040190910501069719F481E0C8
:1000F00090E006C080910401909105019927019636
:100100009093050180930401089508951F920F9222
:100110000FB60F9211242F933F938F939F93AF931A
:10012000BF9380910B0190910C01A0910D01B091B2
:100130000E0130910A0123E0230F2D3720F40196A0
:10014000A11DB11D05C026E8230F0296A11DB11DFA
:1001500020930A0180930B0190930C01A0930D0151
:10016000B0930E018091060190910701A0910801C2
:10017000B09109010196A11DB11D809306019093D4
:100180000701A0930801B0930901BF91AF919F911E
:100190008F913F912F910F900FBE0F901F90189548
:1001A0001F920F920FB60F9211242F933F934F93EC
:1001B0005F936F937F938F939F93AF93BF93EF93CF
:1001C000FF93E0910201F09103010995FF91EF91F6
:1001D000BF91AF919F918F917F916F915F914F915F
:1001E0003F912F910F900FBE0F901F9018951F9267
:1001F0000F920FB60F9211242F933F934F935F935B
:100200006F937F938F939F93AF93BF93EF93FF93DE
:10021000E0910001F09101010995FF91EF91BF91EB
:10022000AF919F918F917F916F915F914F913F918E
:100230002F910F900FBE0F901F901895789484B552
:10024000826084BD84B5816084BD85B5826085BDD2
:1002500085B5816085BD80916E00816080936E0060
:100260001092810080918100826080938100809152
:100270008100816080938100809180008160809303
:1002800080008091B10084608093B1008091B000C3
:1002900081608093B00080917A00846080937A00BE
:1002A00080917A00826080937A0080917A008160E8
:1002B00080937A0080917A00806880937A0010920F
:1002C000C100E2E9F0E02491EEE7F0E084918823B8
:1002D000C1F090E0880F991FFC01EE58FF4FC591C7
:1002E000D491FC01E859FF4FA591B4919FB7F894C0
:1002F0003881822F809583238883EC91E22BEC93C5
:100300009FBF81E790E0909301018093000180916D
:100310006900836080936900E89AC0E0D0E020978C
:0C032000F1F30E940000FBCFF894FFCF27
:04032C0085008500C3
:00000001FF
