:100000000C94A2000C94F9010C94D2010C94BF0042
:100010000C94BF000C94BF000C94BF000C94BF0064
:100020000C94BF000C94BF000C94BF000C94BF0054
:100030000C94BF000C94BF000C94BF000C94BF0044
:100040000C9488010C94BF000C94BF000C94BF006A
:100050000C94BF000C94BF000C94BF000C94BF0024
:100060000C94BF000C94BF0007634236B79BD8A71F
:100070001A39685618AEBAAB558C1D3CB7CC5763CD
:10008000BD6DEDFD753EF6177231BF000000803F7B
:1000900008000000BE922449123EABAAAA2ABECD97
:1000A000CCCC4C3E00000080BEABAAAAAA3E000009
:1000B0000000BF000000803F000000000008417801
:1000C000D3BB4387D1133D190E3CC3BD4282AD2B38
:1000D0003E68EC8276BED98FE1A93E4C80EFFFBE30
:1000E00001C4FF7F3F00000000000000000023006B
:1000F0002600290000000000240027002A0000003C
:100100000000250028002B00040404040404040457
:1001100002020202020203030303030301020408B2
:100120001020408001020408102001020408102061
:1001300000000008000201000003040700000000A6
:100140000000000011241FBECFEFD8E0DEBFCDBFFE
:1001500011E0A0E0B1E0E2EAFEE002C005900D92FD
:10016000A830B107D9F721E0A8E0B1E001C01D92A5
:10017000AC31B207E1F70E9420020C944F070C94B7
:100180000000833081F028F4813099F08230A1F0B2
:1001900008958730A9F08830B9F08430D1F4809187
:1001A00080008F7D03C0809180008F7780938000D6
:1001B000089584B58F7702C084B58F7D84BD08957E
:1001C0008091B0008F7703C08091B0008F7D8093C5
:1001D000B00008951F93CF93DF93282F30E0F901EB
:1001E000E05DFE4F8491F901E45EFE4FD491F90188
:1001F000E85FFE4FC491CC23C9F0162F81110E94F5
:10020000C100EC2FF0E0EE0FFF1FE250FF4FA59171
:10021000B4918FB7F894111105C09C91ED2FE09522
:10022000E92302C0EC91ED2BEC938FBFDF91CF91CE
:100230001F910895CF93DF9390E0FC01E45EFE4FA1
:100240002491FC01E85FFE4F8491882361F190E0E6
:10025000880F991FFC01EC50FF4FC591D491FC0110
:10026000E250FF4FA591B491611109C09FB7F89476
:100270008881209582238883EC912E230BC06230E5
:1002800061F49FB7F8943881822F80958323888307
:10029000EC912E2B2C939FBF06C08FB7F894E8816A
:1002A0002E2B28838FBFDF91CF9108950895CF9390
:1002B000DF93E2E3F1E08491EEE1F1E0D491EAE052
:1002C000F1E0C491CC2371F081110E94C100EC2FA8
:1002D000F0E0EE0FFF1FE651FF4FA591B491EC91B6
:1002E000ED2399F480910F0190911001059719F475
:1002F00081E090E006C080910F0190911001992754
:1003000001969093100180930F01DF91CF91089592
:100310001F920F920FB60F9211242F933F938F933A
:100320009F93AF93BF938091180190911901A09171
:100330001A01B0911B013091170123E0230F2D37D3
:1003400020F40196A11DB11D05C026E8230F0296D9
:10035000A11DB11D209317018093180190931901DD
:10036000A0931A01B0931B01809113019091140185
:10037000A0911501B09116010196A11DB11D8093A8
:10038000130190931401A0931501B0931601BF912E
:10039000AF919F918F913F912F910F900FBE0F9032
:1003A0001F9018951F920F920FB60F9211242F9342
:1003B0003F934F935F936F937F938F939F93AF93ED
:1003C000BF93EF93FF93E0910201F0910301099530
:1003D000FF91EF91BF91AF919F918F917F916F911D
:1003E0005F914F913F912F910F900FBE0F901F90F3
:1003F00018951F920F920FB60F9211242F933F93CF
:100400004F935F936F937F938F939F93AF93BF931C
:10041000EF93FF93E0910001F09101010995FF91A5
:10042000EF91BF91AF919F918F917F916F915F916C
:100430004F913F912F910F900FBE0F901F901895E5
:10044000CF93DF9300D01F92CDB7DEB7789484B5F9
:10045000826084BD84B5816084BD85B5826085BDC0
:1004600085B5816085BD80916E00816080936E004E
:100470001092810080918100826080938100809140
:1004800081008160809381008091800081608093F1
:1004900080008091B10084608093B1008091B000B1
:1004A00081608093B00080917A00846080937A00AC
:1004B00080917A00826080937A0080917A008160D6
:1004C00080937A0080917A00806880937A001092FD
:1004D000C10004E010E061E08AE00E941A0161E0DE
:1004E0008AE00E94EA0001501109A9F762E082E067
:1004F0000E941A0187E591E0909301018093000129
:10050000809169008C7F826080936900E89A81E025
:1005100090E09093100180930F0120E9C22EDD241A
:10052000D39401E0098330E0A32E30E0B32E882479
:100530008394912C1FEF8FB7F8944091180150913C
:10054000190160911A0170911B018FBFCA0150936C
:1005500012014093110120910F01309110012230BE
:10056000310571F17CF421153105E9F021303105B7
:10057000F1F410930B0110930C0110930D011093E3
:100580000E0115C02430310509F465C02CF1253069
:10059000310569F410920B0110920C0110920D01BB
:1005A00010920E0104C09092100180920F018BE016
:1005B000E82E81E0F82E94E0692E91E0792E80C03B
:1005C000B6010E943B07892B91F780910801802793
:1005D0008093080181954FC080910901811103C06A
:1005E00081E0809309015527452B09F7F090090117
:1005F0006F2D70E080E090E00E94BA031B012C0197
:10060000EBE0F1E0FB83EA83E12C6E2D70E080E00B
:1006100090E00E94B8039B01AC0160E070E080E0D4
:1006200090E40E9419049B01AC0177247394C201E9
:10063000B1010E94B3038111712C7194EA81FB8195
:100640007192FB83EA83E394F4E0EF12DECFFF0CB8
:10065000F0920901ACCF80910A019FEF980F9E3F65
:1006600010F0298101C020E0222371F08F5F809378
:100670000A0180910A0180930B0180930C01809301
:100680000D0180930E0193CF90930A01F2CFFFEFFB
:100690004F16510409F45BC0E32DF0E0E05DFE4F1E
:1006A000E491E330A1F118F5E130D1F484B580682C
:1006B00084BD27BC9FE0E91691E0F90609F44CC01F
:1006C000F70121907F01422C512CF30131903F0121
:1006D00061E0832D0E941A0141145104C1F635C016
:1006E000E23079F584B5806284BD28BCE3CFE73081
:1006F000C1F0E830F1F0E43021F5809180008062B3
:100700008093800050928B0040928A00D3CF8091DA
:100710008000806880938000509289004092880019
:10072000C9CF8091B00080688093B0002092B30060
:10073000C1CF8091B00080628093B0002092B4005D
:10074000B9CF80E84816510414F460E001C061E0BC
:10075000832D0E94EA00AECFA114B10409F4EBCEC0
:100760000E940000E7CE0E94F50308F481E008959E
:10077000E89409C097FB3EF490958095709561953B
:100780007F4F8F4F9F4F9923A9F0F92F96E9BB27F1
:100790009395F695879577956795B795F111F8CF6D
:1007A000FAF4BB0F11F460FF1BC06F5F7F4F8F4FD8
:1007B0009F4F16C0882311F096E911C0772321F0CE
:1007C0009EE8872F762F05C0662371F096E8862F66
:1007D00070E060E02AF09A95660F771F881FDAF7BD
:1007E000880F9695879597F90895990F0008550FEA
:1007F000AA0BE0E8FEEF16161706E807F907C0F0A7
:1008000012161306E407F50798F0621B730B840BAE
:10081000950B39F40A2661F0232B242B252B21F488
:1008200008950A2609F4A140A6958FEF811D811D28
:100830000895FA01EE0FFF1F309621053105A1F151
:100840006115710561F48038BFE39B0749F1689435
:100850009038810561F08038BFEF9B0741F0992304
:100860004AF5FF3FE1053105210519F1E8940894A7
:10087000E795D901AA2329F4AB2FBE2FF85FD0F357
:1008800010C0FF5F70F4A695E0F7F73950F019F04B
:10089000FF3A38F49F779F930DD00F9007FC905844
:1008A000089546F00C94A90460E070E080E89FE3AE
:1008B00008954FE79F775F934F933F932F930E9445
:1008C00046052F913F914F915F910E94C2050C9474
:1008D000710429F416F00C94A3040C94F5040C9400
:1008E000A9040E94DB04A8F39638A0F707F80F923A
:1008F000E8942BE33AEA48EB5FE70E94D8050F92B1
:100900000F920F924DB75EB70F920E948E05E8E6E8
:10091000F0E00E94AC044F915F91EF91FF91E5955B
:10092000EE1FFF1F49F0FE57E0684427EE0F441FFB
:10093000FA95E1F74195550B0E9408050F9007FEC7
:100940000C94FC04089597F99F6780E870E060E0DC
:1009500008959FEF80EC0895DF93CF931F930F933B
:10096000FF92EF92DF927B018C01689406C0DA2E31
:10097000EF010E94D505FE01E894A59125913591DE
:1009800045915591A6F3EF010E944706FE0197019C
:10099000A801DA9469F7DF90EF90FF900F911F9113
:1009A000CF91DF91089557FD9058440F551F59F08E
:1009B0005F3F71F04795880F97FB991F61F09F3F4C
:1009C00079F087950895121613061406551FF2CF75
:1009D0004695F1DF08C0161617061806991FF1CFC5
:1009E00086957105610508940895E894BB276627EC
:1009F0007727CB0197F908959B01AC0160E070E087
:100A000080E89FE30C949C060C94A3040C940E07BE
:100A10000E94DB04D8F39923C9F3940F511DA3F36B
:100A20009150504094F059F0882332F0660F771FB0
:100A3000881F91505040C1F79E3F51052CF7880FF9
:100A4000911D9695879597F908955F3FACF0983E74
:100A50009CF0BB27869577956795B79508F4B160AC
:100A60009395C1F7BB0F58F711F460FFE8CF6F5FA4
:100A70007F4F8F4F9F4FE3CF0C94F60416F00C94EA
:100A80000E070C94A90468940C94A3040E94DB0440
:100A9000A8F39923C1F3AEF3DF93CF931F930F9382
:100AA000FF92C92FDD2788232AF02197660F771F31
:100AB000881FDAF720E030E040E85FEB9FE38839F9
:100AC00020F0803E38F021968F770E943006E0E9D2
:100AD000F0E004C00E943006EDEBF0E00E94AC04B0
:100AE0008B01BE01EC01FB2E6F5771097595771FC5
:100AF000880B990B0E94BA0328E132E741E35FE3D8
:100B00000E94D505AF2D9801AE01FF900F911F9166
:100B1000CF91DF910E9447060C942A07FA01DC016D
:100B2000AA0FBB1F9B01AC01BF5728F42227332714
:100B30004427507820C0B75190F4AB2F002446953D
:100B400037952795011CA395D2F3002071F0220F51
:100B5000331F441FB395DAF30ED00C942F06613087
:100B60007105A0E88A07B94630F49B01AC016627FD
:100B7000772788279078309621F02083318342832D
:100B8000538308950E94D5050C942A070E941C07E0
:100B900038F00E94230720F0952311F00C94A30451
:100BA0000C94A90411240C94F6040E94D30470F34D
:100BB000959FC1F3950F50E0551F629FF001729F02
:100BC000BB27F00DB11D639FAA27F00DB11DAA1F11
:100BD000649F6627B00DA11D661F829F2227B00D5E
:100BE000A11D621F739FB00DA11D621F839FA00DE9
:100BF000611D221F749F3327A00D611D231F849F39
:100C0000600D211D822F762F6A2F11249F5750408F
:100C10009AF0F1F088234AF0EE0FFF1FBB1F661F0A
:100C2000771F881F91505040A9F79E3F510580F0D3
:100C30000C94A3040C94F6045F3FE4F3983ED4F3C1
:100C4000869577956795B795F795E7959F5FC1F777
:100C5000FE2B880F911D9695879597F9089550580A
:100C6000BB27AA270E9447060C942A070E941C074C
:100C700038F00E94230720F039F49F3F19F426F43E
:100C80000C94A9040EF4E095E7FB0C94A304E92F5F
:100C90000E94D30458F3BA176207730784079507B5
:100CA00020F079F4A6F50C94F5040EF4E0950B2EE3
:100CB000BA2FA02D0B01B90190010C01CA01A001AE
:100CC0001124FF27591B99F0593F50F4503E68F109
:100CD0001A16F040A22F232F342F4427585FF3CF4A
:100CE000469537952795A795F0405395C9F77EF41B
:100CF0001F16BA0B620B730B840BBAF09150A1F064
:100D0000FF0FBB1F661F771F881FC2F70EC0BA0FE9
:100D1000621F731F841F48F4879577956795B79571
:100D2000F7959E3F08F0B0CF9395880F08F099276C
:100D3000EE0F9795879508950E94B0060C942A07A8
:100D40000E94230758F00E941C0740F029F45F3FDF
:100D500029F00C94A30451110C94F6040C94A904EA
:100D60000E94D30468F39923B1F3552391F3951BA3
:100D7000550BBB27AA2762177307840738F09F5FBC
:100D80005F4F220F331F441FAA1FA9F335D00E2E29
:100D90003AF0E0E832D091505040E695001CCAF796
:100DA0002BD0FE2F29D0660F771F881FBB1F261759
:100DB00037074807AB07B0E809F0BB0B802DBF0130
:100DC000FF2793585F4F3AF09E3F510578F00C94FF
:100DD000A3040C94F6045F3FE4F3983ED4F38695A5
:100DE00077956795B795F7959F5FC9F7880F911D20
:100DF0009695879597F90895E1E0660F771F881F0C
:100E0000BB1F621773078407BA0720F0621B730BBE
:100E1000840BBA0BEE1F88F7E09508959F3F31F0E1
:100E2000915020F4879577956795B795880F911D18
:100E30009695879597F9089500240A941616170633
:100E400018060906089500240A94121613061406BB
:100E500005060895092E0394000C11F4882352F01E
:100E6000BB0F40F4BF2B11F460FF04C06F5F7F4FD6
:100E70008F4F9F4F0895AA1BBB1B51E107C0AA1FAC
:100E8000BB1FA617B70710F0A61BB70B881F991F2B
:100E90005A95A9F780959095BC01CD010895F894D5
:020EA000FFCF82
:080EA200560156010506090A7C
:00000001FF
